:10010000CEA000FF01CCBD0113BD0119BD01BCBDD6
:1001100001273F8600B7811039CEA0008660A70076
:10012000088CA20026F839BDFFA0811B271EBDFF49
:100130009081602C0A81402C0E81202C06200880A2
:100140002020048B402000BD014D20DB39810D278C
:100150004C81082712FE01CCA70086CFA70108FF1B
:1001600001CC8CA2002654FE01CC0986CFA70086C4
:1001700060A701FF01CC2043CEA000FF01CCA62048
:10018000A700088CA1E026F68660A700088CA200D4
:1001900026F8CEA1E0FF01CCBD01BC201EBD01C4EC
:1001A000B601CD84E0F601CC8B20C900C1A227C8DE
:1001B000F701CCB701CDBD01BC20003986CFFE01CF
:0D01C000CCA700398660FE01CCA7003902F3
:00000001FF
