:10010000CEA000FF01A1BD0191BD0113BD0119BD2C
:1001100001273F8600B7811039CEA0008620A700B6
:10012000088CA20026F839BDE75D811B2708BDE7D2
:100130006EBD013720F139810D2737FE01A1A700DF
:10014000868FA70108FF01A18CA2002643CEA00044
:10015000FF01A1A620A700088CA1E026F68620A713
:1001600000088CA20026F8CEA1E0FF01A1BD0191FC
:10017000201EBD0199B601A284E0F601A18B20C921
:1001800000C1A227C8F701A1B701A2BD01912000BB
:1001900039868FFE01A1A700398620FE01A1A700A4
:0201A000390222
:00000001FF
