:10010000CEA000FF01B7BD0113BD0119BD01A7BD00
:1001100001273F8600B7811039CEA0008660A70076
:10012000088CA20026F839BDE75D811B271EBDE7BC
:100130006E81602C0A81402C0E81202C06200880C4
:100140002020048B402000BD014D20DB39810D278C
:1001500037FE01B7A70086CFA70108FF01B78CA221
:10016000002643CEA000FF01B7A620A700088CA15F
:10017000E026F68660A700088CA20026F8CEA1E053
:10018000FF01B7BD01A7201EBD01AFB601B884E0D5
:10019000F601B78B20C900C1A227C8F701B7B70184
:1001A000B8BD01A720003986CFFE01B7A700398668
:0801B00060FE01B7A70039024F
:00000001FF
