:10010000CEA000FF01CFBD0113BD0119BD01BFBDD0
:1001100001273F8600B7811039CEA0008660A70076
:10012000088CA20026F839BDFFA0811B271EBDFF49
:100130009081602C0A81402C0E81202C06200880A2
:100140002020048B402000BD016120DB398CA00001
:10015000276CBD01C7FE01CF09FF01CFBD01BF2044
:100160005D810D273B810827E4FE01CFA70086CFE4
:10017000A70108FF01CF8CA2002643CEA000FF01FB
:10018000CFA620A700088CA1E026F68660A700086D
:100190008CA20026F8CEA1E0FF01CFBD01BF201E3A
:1001A000BD01C7B601D084E0F601CF8B20C900C1E4
:1001B000A227C8F701CFB701D0BD01BF2000398603
:1001C000CFFE01CFA700398660FE01CFA70039021C
:00000001FF
